{
  "_format": "hh-sol-artifact-1",
  "contractName": "PokemonFactory",
  "sourceName": "contracts/PokemonFactory.sol",
  "abi": [
    {
      "anonymous": false,
      "inputs": [
        {
          "indexed": false,
          "internalType": "uint256",
          "name": "id",
          "type": "uint256"
        },
        {
          "indexed": false,
          "internalType": "string",
          "name": "name",
          "type": "string"
        },
        {
          "indexed": false,
          "internalType": "address",
          "name": "sender",
          "type": "address"
        }
      ],
      "name": "eventNewPokemon",
      "type": "event"
    },
    {
      "inputs": [
        {
          "internalType": "string",
          "name": "_name",
          "type": "string"
        },
        {
          "internalType": "uint256",
          "name": "_id",
          "type": "uint256"
        }
      ],
      "name": "createPokemon",
      "outputs": [],
      "stateMutability": "nonpayable",
      "type": "function"
    },
    {
      "inputs": [],
      "name": "getAllPokemons",
      "outputs": [
        {
          "components": [
            {
              "internalType": "uint256",
              "name": "id",
              "type": "uint256"
            },
            {
              "internalType": "string",
              "name": "name",
              "type": "string"
            }
          ],
          "internalType": "struct PokemonFactory.Pokemon[]",
          "name": "",
          "type": "tuple[]"
        }
      ],
      "stateMutability": "view",
      "type": "function"
    },
    {
      "inputs": [],
      "name": "getResult",
      "outputs": [
        {
          "internalType": "uint256",
          "name": "product",
          "type": "uint256"
        },
        {
          "internalType": "uint256",
          "name": "sum",
          "type": "uint256"
        }
      ],
      "stateMutability": "pure",
      "type": "function"
    },
    {
      "inputs": [
        {
          "internalType": "uint256",
          "name": "",
          "type": "uint256"
        }
      ],
      "name": "pokemonToOwner",
      "outputs": [
        {
          "internalType": "address",
          "name": "",
          "type": "address"
        }
      ],
      "stateMutability": "view",
      "type": "function"
    }
  ],
  "bytecode": "0x608060405234801561001057600080fd5b50610c66806100206000396000f3fe608060405234801561001057600080fd5b506004361061004c5760003560e01c80630a3bd50b146100515780632f7467b31461006d5780635e9167901461009d578063de292789146100bb575b600080fd5b61006b60048036038101906100669190610511565b6100da565b005b6100876004803603810190610082919061056d565b610222565b60405161009491906105db565b60405180910390f35b6100a5610255565b6040516100b29190610783565b60405180910390f35b6100c3610350565b6040516100d19291906107b4565b60405180910390f35b7fae03d61b5220816daf808713a3f432bbd2c974b8abd5d214cbc1850bcff0badb81833360405161010d93929190610827565b60405180910390a1600060405180604001604052808381526020018481525090806001815401808255809150506001900390600052602060002090600202016000909190919091506000820151816000015560208201518160010190816101749190610a71565b505050336001600083815260200190815260200160002060006101000a81548173ffffffffffffffffffffffffffffffffffffffff021916908373ffffffffffffffffffffffffffffffffffffffff160217905550600260003373ffffffffffffffffffffffffffffffffffffffff1673ffffffffffffffffffffffffffffffffffffffff168152602001908152602001600020600081548092919061021990610b72565b91905055505050565b60016020528060005260406000206000915054906101000a900473ffffffffffffffffffffffffffffffffffffffff1681565b60606000805480602002602001604051908101604052809291908181526020016000905b828210156103475783829060005260206000209060020201604051806040016040529081600082015481526020016001820180546102b690610894565b80601f01602080910402602001604051908101604052809291908181526020018280546102e290610894565b801561032f5780601f106103045761010080835404028352916020019161032f565b820191906000526020600020905b81548152906001019060200180831161031257829003601f168201915b50505050508152505081526020019060010190610279565b50505050905090565b600080600060019050600060029050808261036b9190610bba565b935080826103799190610bfc565b925050509091565b6000604051905090565b600080fd5b600080fd5b600080fd5b600080fd5b6000601f19601f8301169050919050565b7f4e487b7100000000000000000000000000000000000000000000000000000000600052604160045260246000fd5b6103e88261039f565b810181811067ffffffffffffffff82111715610407576104066103b0565b5b80604052505050565b600061041a610381565b905061042682826103df565b919050565b600067ffffffffffffffff821115610446576104456103b0565b5b61044f8261039f565b9050602081019050919050565b82818337600083830152505050565b600061047e6104798461042b565b610410565b90508281526020810184848401111561049a5761049961039a565b5b6104a584828561045c565b509392505050565b600082601f8301126104c2576104c1610395565b5b81356104d284826020860161046b565b91505092915050565b6000819050919050565b6104ee816104db565b81146104f957600080fd5b50565b60008135905061050b816104e5565b92915050565b600080604083850312156105285761052761038b565b5b600083013567ffffffffffffffff81111561054657610545610390565b5b610552858286016104ad565b9250506020610563858286016104fc565b9150509250929050565b6000602082840312156105835761058261038b565b5b6000610591848285016104fc565b91505092915050565b600073ffffffffffffffffffffffffffffffffffffffff82169050919050565b60006105c58261059a565b9050919050565b6105d5816105ba565b82525050565b60006020820190506105f060008301846105cc565b92915050565b600081519050919050565b600082825260208201905092915050565b6000819050602082019050919050565b61062b816104db565b82525050565b600081519050919050565b600082825260208201905092915050565b60005b8381101561066b578082015181840152602081019050610650565b60008484015250505050565b600061068282610631565b61068c818561063c565b935061069c81856020860161064d565b6106a58161039f565b840191505092915050565b60006040830160008301516106c86000860182610622565b50602083015184820360208601526106e08282610677565b9150508091505092915050565b60006106f983836106b0565b905092915050565b6000602082019050919050565b6000610719826105f6565b6107238185610601565b93508360208202850161073585610612565b8060005b85811015610771578484038952815161075285826106ed565b945061075d83610701565b925060208a01995050600181019050610739565b50829750879550505050505092915050565b6000602082019050818103600083015261079d818461070e565b905092915050565b6107ae816104db565b82525050565b60006040820190506107c960008301856107a5565b6107d660208301846107a5565b9392505050565b600082825260208201905092915050565b60006107f982610631565b61080381856107dd565b935061081381856020860161064d565b61081c8161039f565b840191505092915050565b600060608201905061083c60008301866107a5565b818103602083015261084e81856107ee565b905061085d60408301846105cc565b949350505050565b7f4e487b7100000000000000000000000000000000000000000000000000000000600052602260045260246000fd5b600060028204905060018216806108ac57607f821691505b6020821081036108bf576108be610865565b5b50919050565b60008190508160005260206000209050919050565b60006020601f8301049050919050565b600082821b905092915050565b6000600883026109277fffffffffffffffffffffffffffffffffffffffffffffffffffffffffffffffff826108ea565b61093186836108ea565b95508019841693508086168417925050509392505050565b6000819050919050565b600061096e610969610964846104db565b610949565b6104db565b9050919050565b6000819050919050565b61098883610953565b61099c61099482610975565b8484546108f7565b825550505050565b600090565b6109b16109a4565b6109bc81848461097f565b505050565b5b818110156109e0576109d56000826109a9565b6001810190506109c2565b5050565b601f821115610a25576109f6816108c5565b6109ff846108da565b81016020851015610a0e578190505b610a22610a1a856108da565b8301826109c1565b50505b505050565b600082821c905092915050565b6000610a4860001984600802610a2a565b1980831691505092915050565b6000610a618383610a37565b9150826002028217905092915050565b610a7a82610631565b67ffffffffffffffff811115610a9357610a926103b0565b5b610a9d8254610894565b610aa88282856109e4565b600060209050601f831160018114610adb5760008415610ac9578287015190505b610ad38582610a55565b865550610b3b565b601f198416610ae9866108c5565b60005b82811015610b1157848901518255600182019150602085019450602081019050610aec565b86831015610b2e5784890151610b2a601f891682610a37565b8355505b6001600288020188555050505b505050505050565b7f4e487b7100000000000000000000000000000000000000000000000000000000600052601160045260246000fd5b6000610b7d826104db565b91507fffffffffffffffffffffffffffffffffffffffffffffffffffffffffffffffff8203610baf57610bae610b43565b5b600182019050919050565b6000610bc5826104db565b9150610bd0836104db565b9250828202610bde816104db565b91508282048414831517610bf557610bf4610b43565b5b5092915050565b6000610c07826104db565b9150610c12836104db565b9250828201905080821115610c2a57610c29610b43565b5b9291505056fea2646970667358221220a09e663456b8199f0744ac87398fbcc2be90f6a5bffa006699d12f26d4102cd864736f6c63430008120033",
  "linkReferences": {},
  "deployedLinkReferences": {}
}